:020000040800F2
:10000000380700205D1F0008B9060008BB0600087D
:10001000BF060008C3060008C7060008000000006D
:10002000000000000000000000000000CB060008F7
:10003000CD06000800000000CF060008D106000829
:10004000771F0008771F0008771F0008771F000838
:10005000771F0008771F0008771F0008771F000828
:10006000771F0008771F0008771F0008771F000818
:10007000771F0008771F0008771F0008771F000808
:10008000771F0008771F0008771F0008771F0008F8
:10009000771F0008771F0008771F00083B0B000838
:1000A000771F0008771F0008771F0008771F0008D8
:1000B000DB1400082B15000879150008771F0008CD
:1000C000771F0008771F0008771F0008771F0008B8
:1000D000771F0008771F0008771F0008451B0008DE
:1000E0003F110008771F0008771F0008771F0008DE
:1000F000771F0008771F0008870D0008771F00088A
:10010000771F0008771F0008C7150008771F000831
:10011000491C0008771F0008771F0008771F000898
:10012000771F0008771F0008771F0008771F000857
:1001300000F002F800F042F80AA090E8000C8244B7
:100140008344AAF10107DA4501D100F037F8AFF294
:10015000090EBAE80F0013F0010F18BFFB1A43F0A5
:10016000010318470449000024490000103A24BF45
:1001700078C878C1FAD8520724BF30C830C144BF0C
:1001800004680C607047000000230024002500264E
:10019000103A28BF78C1FBD8520728BF30C148BFEA
:1001A0000B607047642903F0D384732903F0E3855F
:1001B000002070471FB51FBD10B510BD03F0F6FD40
:1001C0001146FFF7F7FF00F009F803F014FE03B43F
:1001D000FFF7F2FF03BC01F061FE00009AB001F0EE
:1001E000E7FD4FF4A06001F0D9FE00F063FF00F0DE
:1001F00095FFFE4801F00BFCFD4801F0C7FC01F043
:1002000004F801F079F84FF4165001F013FC01F0F6
:10021000CBFC45E2F648007801287DD1F54908700D
:1002200001F05BFD92E000BFF34800780028FBD0AE
:1002300001F06EFD064601F088FD0746EF480078A4
:1002400028B10020ED490870EB4908707FE0304686
:10025000F11706EB91718E10E648007800EB8000F4
:10026000E74A02EB80013246E04801F01BFB0446FE
:1002700032225142204601F0B8FB04463846F917B5
:1002800007EB91718F10DB48007800EB8000DC4AAF
:1002900002EB80013A46D54801F004FB05463222C4
:1002A0005142284601F0A1FB05462246D5A10DA8E2
:1002B00003F010FC0DA801F00CFCFF2001F01FFC66
:1002C0002A46D5A1684603F005FC684601F001FC0A
:1002D000FF2001F014FC002C03DD0020D34908604E
:1002E00003E00120D14908606442002D03DD0020B5
:1002F000CF49086003E00120CD4908606D424CB150
:10030000A1B24FF47A72022001F0A6FA0121880707
:1003100002F062FE5DB100E01EE0A9B24FF47A7215
:10032000052001F099FA0121C24802F055FE00BFF4
:10033000022001F02EFA0028FAD000BF052001F0BB
:1003400028FA0028FAD00020AB4908706BE700BFFC
:100350000020A7490870A3E1A548407801287CD176
:10036000A4490870022001F0B8FC86E000BFA24852
:1003700000780028FBD0A148007828B100209F49D0
:1003800008709D49087079E001F0C2FC064601F052
:10039000DCFC07463046F11706EB91718E1095484C
:1003A000007800EB8000964A02EB800132468F48CD
:1003B00001F078FA044664225142204601F015FB10
:1003C00004463846F91707EB91718F108948007879
:1003D00000EB80008A4A02EB80013A46834801F034
:1003E00061FA054664225142284601F0FEFA0546AC
:1003F000224684A10DA803F06DFB0DA801F069FB56
:100400002A4685A1684603F065FB684601F061FB5A
:10041000FF2001F074FB002C03DD002083490860FD
:1004200003E00120814908606442002D03DD0020C3
:100430007F49086003E001207D4908606D424CB1AE
:10044000A1B24FF4C872022001F006FA0121880718
:1004500002F0C2FD5DB1A9B200E014E04FF4C87231
:10046000052001F0F9F90121724802F0B5FD0220E2
:1004700001F0DBFC00206049087077E700BF002036
:100480005B4948700CE15A4880780128FAD1002075
:10049000584908704FF4FA78032001F01EFCF9E087
:1004A00000BF554800780028FBD05448007828B198
:1004B00000205249087050490870ECE001F028FC17
:1004C000064601F042FC0746304601F099FA1E2824
:1004D00009DA384601F094FA1E2804DA0020564959
:1004E00008704FF4487854480078E0B300BF4148A2
:1004F0000078401C00EB8000414A02EB800132464C
:100500003A4801F0CFF9044664225142204601F0F6
:100510006CFA044600BF37480078401C00EB8000AE
:10052000374A02EB80013A46304801F0BBF90546F4
:1005300064225142284601F058FA0546224631A16C
:100540000DA803F0C7FA0DA801F0C3FAFF2001F0CF
:10055000D6FA2A4630A1684603F0BCFA684601F094
:10056000B8FAFF2000E002E001F0C9FA3BE000BF6A
:100570002048007800EB8000214A02EB80013246DF
:100580001A4801F08FF9044604225142204601F036
:100590002CFA044600BF1748007800EB8000184A88
:1005A00002EB80013A46114801F07CF9054604222D
:1005B0005142284601F019FA0546224611A10DA81C
:1005C00003F088FA0DA801F084FAFF2001F097FAF1
:1005D0002A4611A1684603F07DFA684601F079FACF
:1005E000FF2001F08CFA002C2CDD27E0C400002055
:1005F0009900002098000020A6000020A7000020FD
:100600007000002070616765302E74312E7478742C
:100610003D2225642200000070616765302E74322F
:100620002E7478743D222564220000009401224239
:100630009C012142000C00409C0000200020194930
:10064000086003E00120174908606442002D03DDC3
:1006500000201549086003E00120134908606D423D
:1006600044B1A1B24246022001F0F6F80121880708
:1006700002F0B2FC45B1A9B24246052001F0ECF807
:1006800001210A4802F0A8FC012001F0CEFB002065
:100690000749087004E700BF00200649887000BFC2
:1006A000B8E50000940122429C012142000C004068
:1006B000A600002099000020704700BFFEE700BFA1
:1006C000FEE700BFFEE700BFFEE7704770477047D8
:1006D000704700000CB50020019000906C48006845
:1006E00040F480306A49086000BF6948006800F43F
:1006F000003000900198401C0190009818B90198B2
:10070000B0F5A06FF1D16248006800F4003010B17C
:100710000120009001E0002000900098012843D1C2
:100720005C48006840F010005A49086008460068BC
:1007300020F0030008600846006840F002000860EE
:100740005348406852494860084640684860084637
:10075000406840F4806048600846406820F47C109F
:1007600048600846406840F4E81048600846006861
:1007700040F08070086000BF4548006800F00070DD
:100780000028F9D04248406820F003004049486002
:100790000846406840F00200486000BF3C4840689E
:1007A00000F00C000828F9D10CBD10B5FFF792FF3E
:1007B00010BD10B53648006840F0010034490860AB
:1007C0000846406834490840314948600846006896
:1007D000324908402E4908600846006820F480200D
:1007E00008600846406820F4FE0048604FF41F008F
:1007F0008860FFF7DAFF4FF000602949086010BDFC
:1008000010B5002100200022214B5B6803F00C0191
:1008100021B1042906D0082928D107E0214B224C18
:10082000236027E01F4B204C236023E0184B5B68BC
:1008300003F47010164B5B6803F48032022303EB61
:10084000904022B9194B4343174C23600DE0104BE5
:100850005B6803F4003323B1144B4343124C236011
:1008600003E0104B4343104C236003E00D4B0E4C50
:10087000236000BF00BF064B5B68C3F303130C4C3F
:10088000E15C094B1B68CB40074C236010BD0000A6
:1008900000100240002002400000FFF8FFFFF6FEBB
:1008A00008ED00E000127A000000002000093D0081
:1008B000040000202DE9F34F85B08A464FF0000B6D
:1008C000002004904FEA4A0A4CF25030824519D871
:1008D000BAF1000F16D040F29F5B504603F03EFD88
:1008E000804642460B460020FE4903F06BFB06465D
:1008F0000022FD4B03F044FE044603F0EBFC80B203
:10090000049019E04CF25030824515D94FF0000B9D
:10091000504603F023FD064632460B460020F349BD
:1009200003F050FB04460022EF4B03F029FE804603
:1009300003F0D0FC80B204900020ADF80A00ADF8BE
:1009400006000498ADF80800ADF804B000208DF85A
:100950000C0001A9059801F0E3FF07B0BDE8F08F96
:100960001FB50121112001F0A3FE04208DF807001E
:100970004FF44070ADF8040003208DF8060001A983
:10098000DB4801F0D9FB0821022001F0EBFC4FF419
:100990008070029000208DF80C000C208DF80D0066
:1009A00001208DF80E0002A803F006F809210220AC
:1009B00001F0D8FC4FF40070029002A802F0FCFF96
:1009C00017208DF8000002208DF801008DF802003C
:1009D00001208DF80300684601F0E5FA1FBD0146CD
:1009E0000020012902D0022912D108E0C14A127A5E
:1009F000022A01D1012200E00022104609E0BE4A8D
:100A0000127A022A01D1012200E00022104600E001
:100A100000BF00BF704710B50446012C02D0022C65
:100A20002AD114E0B348407C10B90120B149487480
:100A30000221B24802F0AAFD01220021AF4802F0D3
:100A4000D0FC01220221AD4802F0E1FA15E0AA48EB
:100A5000407C10B90120A84948740421A74802F03D
:100A600095FD01220421A54802F0BBFC01220421CE
:100A7000A24802F0CCFA00E000BF00BF10BD70B584
:100A800006460C461546012E02D0022E28D113E050
:100A90000120C0EB440040B29649087498480460B5
:100AA00015B90120087206E00020924948606800EC
:100AB00008600420087214E00120C0EB440040B23A
:100AC0008D4908748F48046015B90120087206E04A
:100AD000002089494860680008600420087200E02E
:100AE00000BF00BF3046FFF796FF70BD10B504464B
:100AF000012C02D0022C1CD10DE000207D4948744D
:100B0000002211467D4802F06CFC002202217B4845
:100B100002F07DFA0EE0002077494874002204219B
:100B2000764802F05EFC00220421744802F06FFA5D
:100B300000E000BF00BF002010BD10B54FF4807072
:100B400002F0A0FF012822D16F480078401C6E49B6
:100B5000087008460078022814DA0120FFF7C6FF63
:100B600000206449C8604FF4FA7201210846FFF77B
:100B700086FF00BF0120FFF732FF0028FAD063A0F4
:100B800002F09CFF4FF4807002F08DFF2DE04FF4D7
:100B9000007002F077FF012827D161480078401CDF
:100BA0005F49087008460078022803DB0846007891
:100BB000042813DD0220FFF799FF00204E49C8608A
:100BC000322201210220FFF75AFF00BF0220FFF767
:100BD00006FF0028FAD053A002F070FF56A002F0E2
:100BE0006DFF4FF4007002F05EFF10BD00B587B0DE
:100BF000FFF7B6FE012142F2101001F059FD10205E
:100C00008DF81B008002ADF8180003208DF81A0043
:100C100006A94F4801F090FA10208DF81B00400102
:100C2000ADF8180003208DF81A0006A9494801F014
:100C300083FA41F270713148FFF73CFE3020ADF885
:100C400008000020ADF80E00ADF810000120ADF84E
:100C50000A000020ADF81400ADF81200ADF816003F
:100C6000ADF80C0002A9254801F097FE00212348A9
:100C700002F0E2FA02A9214801F0D1FE00211F484A
:100C800002F0E3FA2E208DF8040001208DF8050013
:100C900002208DF8060001208DF8070001A801F060
:100CA00082F918208DF80300C020ADF80000032061
:100CB0008DF8020069460E4801F03EFA01210F4806
:100CC00002F096F901210D4802F04CFC02210B487C
:100CD00002F05CFC00220221084802F098F9002290
:100CE000114639E0006AE8400000F03F882A91414F
:100CF00000100140180000202C00002000340140AA
:100D0000B8812142A4012442150000207368656562
:100D1000705F657874695F73746F70310D0A0000DD
:100D20001400002073686565705F657874695F738F
:100D3000746F70320D0A00006F6C645F73686565D4
:100D4000705F657874695F73746F70320D0A0000AC
:100D5000000C014000200140C24802F042FB042187
:100D6000C04802F013FC00220421BE4802F04FF9F3
:100D700000220421BB4802F034FB0121B94802F0F3
:100D80002BF907B000BD10B50221B64802F0EDFB0B
:100D900068B3B548C068B44991F910100844B24925
:100DA000C8600846007A042803D108464068401C01
:100DB0004860AD484068AC490968884212D1AA48E9
:100DC000007A01280ED000221146A64802F009FB45
:100DD00000220221A34802F01AF90220A249087257
:100DE0000020487402219F4802F0D0FB31E004212A
:100DF0009C4802F0BAFB60B39C48C0689B4991F9DB
:100E0000101008449949C8600846007A042803D1A4
:100E100008464068401C4860944840689349096807
:100E2000884212D19148007A01280ED00022042174
:100E30008C4802F0D6FA002204218A4802F0E7F832
:100E400002208A490872002048740421854802F073
:100E50009DFB10BD012802D002281AD10CE019B95F
:100E60000122814B1A7206E000227F4B5A604A0031
:100E70001A6004221A720DE019B901227B4B1A7212
:100E800006E00022794B5A604A001A6004221A7266
:100E900000E000BF00BF70472DE9F05F82464FEAD7
:100EA0004A0A4CF25030824521D8BAF1000F1ED0C8
:100EB000012240F29F516B4802F035F9504603F091
:100EC0004DFA804642460B460020694903F07AF805
:100ED00006460022674B03F053FB044603F0FAF981
:100EE0001FFA80FB59465F4802F00CFB20E04CF2F1
:100EF000503082451CD9012200215A4802F013F9D2
:100F0000504603F02BFA064632460B4600205A495B
:100F100003F058F880460022564B03F031FB04469C
:100F200003F0D8F91FFA80FB59464E4802F0EAFA5E
:100F3000BDE8F09F2DE9F04106460F4614461D46D8
:100F40002046FFF7A9FF2A4639463046FFF797FDAE
:100F5000BDE8F08110B50446012C02D0022C18D156
:100F60000BE000204549087001203F490872FF202E
:100F700008740020424908600CE0002041490870D4
:100F800001203A490872FF20087400203E49086099
:100F900000E000BF00BF2046FFF73DFD10BD2DE97A
:100FA000F84307460C460026B0460025A946012F07
:100FB00002D0022F2ED116E02B48D0F80C80C0684A
:100FC000B0EB440F01DA012000E0002005460120CB
:100FD000C0EB45004FFA80F92348C068C0EB4400DD
:100FE00000FB09F617E02148D0F80C80C068B0EB90
:100FF000440F01DA012000E0002005460120C0EB8B
:1010000045004FFA80F91948C068C0EB440000FB66
:1010100009F600E000BF00BF1EB93846FFF766FDC5
:1010200004E0720829463846FFF729FD0F4800966C
:10103000C26890F910102B4614A002F03FFD414603
:1010400008EBD1704010BDE8F883012803D10021DE
:10105000054AD16004E0022802D10021034AD16090
:101060007047000000340140180000202C000020D0
:10107000006AE8400000F03F882A914115000020F6
:10108000B881214214000020A40124426469722D19
:10109000706F732D7369676E2D6D6F76652D70752A
:1010A0006C73653A252B642C25642C25642C2564EF
:1010B0000D0A00001FB50121212001F0F9FA482096
:1010C0008DF807004FF48060ADF8040003208DF820
:1010D000060001A93D4801F02FF80A21032001F084
:1010E00041F94FF48060029000208DF80C00102030
:1010F0008DF80D0001208DF80E0002A802F05CFCB6
:1011000028208DF8000001208DF801008DF80200E4
:101110008DF80300684600F046FF1FBD08B50121A9
:10112000102001F0C5FA28208DF803004FF400507C
:10113000ADF800006946264800F0FEFF08BD10B576
:1011400002E00A2000F071FE224800680028F8D072
:101150004FF4806002F096FC012812D10021800734
:1011600001F03AFF00211C4801F036FF07E00020A3
:101170001A4908601A48D0F8280100B900E0F6E7DB
:1011800000BF01201549086002E00A2000F04DFE72
:10119000104800680028F8D04FF47A72012102202C
:1011A00000F05AFB4FF47A720121052000F054FB45
:1011B0000121880701F010FF0121074801F00CFF11
:1011C0004FF4806002F06FFC10BD0000001401407D
:1011D0000010014028812242000C004084812142FD
:1011E0000080224208B50121402001F061FA102060
:1011F0008DF803000220ADF8000003208DF80200F6
:1012000069460E4800F098FF08BD08B50121082086
:1012100001F04EFA10208DF803000220ADF8000016
:1012200003208DF802006946054800F085FF012083
:101230000449086008BD044908607047001801406F
:10124000000C014084812142840123422DE9F34FA7
:1012500085B08A464FF0000B002004904FEA4A0AFE
:101260004CF25030824519D8BAF1000F16D040F236
:101270009F5B504603F072F8804642460B460020C2
:10128000FC4902F09FFE06460022FB4B03F078F972
:10129000044603F01FF880B2049019E04CF250307D
:1012A000824515D94FF0000B504603F057F806461B
:1012B00032460B460020F14902F084FE044600222B
:1012C000ED4B03F05DF9804603F004F880B2049022
:1012D0000020ADF80A00ADF806000498ADF808004B
:1012E000ADF804B000208DF80C0001A9059801F0BC
:1012F00017FB07B0BDE8F08F00B589B001210846A3
:1013000001F0E3F90121022001F0DFF901210420BD
:1013100001F0DBF90121082001F0D7F901210920B2
:1013200001F0C6F90121042001F0C2F901210420D5
:1013300001F0BEF910208DF82300E020ADF8200068
:1013400003208DF8220008A9CD4800F0F5FE012108
:10135000102001F0ADF910208DF81F002020ADF80D
:101360001C0003208DF81E0007A9C64800F0E4FE0B
:1013700018208DF81B000320ADF818008DF81A0016
:1013800006A9BF4800F0D8FE18208DF8170040F2DB
:101390000110ADF8140003208DF8160005A9BA4815
:1013A00000F0CAFE41F28831C806FFF74FFF41F254
:1013B0008831B648FFF74AFF41F28831B448FFF759
:1013C00045FF41F28831B348FFF740FF3020ADF8C8
:1013D00004000020ADF80A00ADF80C000120ADF8C3
:1013E000060001A9800701F0D8FA00214FF08040E3
:1013F00001F022FF01A9A54801F05EFB0021A348EE
:1014000001F030FF01A9A24801F056FB0021A048DD
:1014100001F028FF01A99F4801F001FB00219D4830
:1014200001F013FF1C208DF8000002208DF8010050
:101430008DF8020001208DF80300684600F0B3FD2E
:101440001D208DF80000684600F0ADFD1E208DF8CF
:101450000000684600F0A7FD32208DF800006846C5
:1014600000F0A1FD01220221480701F0D0FD012278
:101470000021900701F0B5FF01220821834801F007
:10148000C6FD01220821814801F0ABFF012208219D
:101490007F4801F0BCFD012208217D4801F0A1FF39
:1014A000012204217B4801F0B2FD01220421794888
:1014B00001F097FF00214FF0804001F08DFD0021E9
:1014C000724801F089FD0021714801F085FD00217D
:1014D000704801F081FD09B000BD10B50221480738
:1014E00002F043F800B36C480079042804D16A483C
:1014F0004088401C68494880674840886649098898
:1015000088420DD164480079012809D000214FF0AC
:10151000804001F061FD00205F4948800220087191
:101520000221480702F032F810BD10B508215748D3
:1015300002F01BF8F8B159480079042804D1574843
:101540004088401C55494880544840885349098880
:1015500088420CD151480079012808D000214B481D
:1015600001F03AFD00204D49488002200871082111
:10157000464802F00BF810BD10B50821444801F0B0
:10158000F4FFF8B146480079042804D14448408863
:10159000401C434948804248408841490988884264
:1015A0000CD13F480079012808D00021384801F0CB
:1015B00013FD00203A494880022008710821344870
:1015C00001F0E4FF10BD10B50421324801F0CDFF59
:1015D000F8B134480079042804D132484088401CCE
:1015E000304948802F4840882E49098888420CD1CC
:1015F0002C480079012808D00021264801F0ECFC95
:10160000002028494880022008710421214801F067
:10161000BDFF10BD2DE9F84F83468A464FEA4A0ABE
:101620004CF25030824541D8BAF1000F3ED01E49ED
:1016300051F82B00012240F29F5101F074FD5046F9
:1016400002F08CFE804642460B460020094902F01B
:10165000B9FC06460022084B02F092FF044602F055
:1016600039FE80B21049009051F82B00009901F02A
:1016700049FF40E0006AE8400000F03F882A9141BD
:101680000008014000100140000C0140000400402F
:1016900000080040000C0040580000205E000020C0
:1016A000640000206A000020400000204CF250300E
:1016B000824520D96F4951F82B000122002101F009
:1016C00032FD504602F04AFE064632460B460020E6
:1016D000694902F077FC04460022684B02F050FF93
:1016E000804602F0F7FD80B26249009051F82B006D
:1016F000009901F007FFBDE8F88F022806D0032803
:1017000014D0042822D0052840D12FE019B9012295
:101710005B4B1A7109E00022594B5A8004221A715E
:101720004FF6FF7202EA41021A8030E019B9012235
:10173000544B1A7109E00022524B5A8004221A714C
:101740004FF6FF7202EA41021A8020E019B9012225
:101750004D4B1A7109E000224B4B5A8004221A713A
:101760004FF6FF7202EA41021A8010E019B9012215
:10177000464B1A7109E00022444B5A8004221A7128
:101780004FF6FF7202EA41021A8000E000BF00BF7C
:10179000704701460020022906D003290DD00429F4
:1017A00014D0052924D11AE0354A1279022A01D130
:1017B000012200E0002210461BE0324A1279022A80
:1017C00001D1012200E00022104612E02E4A1279D7
:1017D000022A01D1012200E00022104609E02B4A32
:1017E0001279022A01D1012200E00022104600E015
:1017F00000BF00BF704710B5254C2060254CC4F8D1
:101800009411C4F89821C4F89C3110BD10B5044659
:1018100084B10121880701F0DFFB01211E4801F09E
:10182000DBFB01211D4801F0D7FB01211C4801F021
:10183000D3FB10E000214FF0804001F0CDFB0021F0
:10184000154801F0C9FB0021144801F0C5FB002137
:10185000134801F0C1FB10BD70B505460E46144695
:1018600021462846FFF7D6FE31462846FFF745FFBA
:1018700070BD000040000020882A91410000F03F28
:10188000580000205E000020640000206A00002054
:101890009401224200002142000400400008004060
:1018A000000C00402DE9F04F93B004460D469146E0
:1018B0004E46304602F03BFD584A594BCDE90C01EB
:1018C00002F060FD07468846206802F043FF3A4672
:1018D0004346CDE90E0102F0CDFACDE9100102F048
:1018E00097FA2060E968206803F084F802D8E86875
:1018F00020600BE0E86880F000473846216803F07C
:1019000079F803D8E86880F000402060686802F049
:1019100021FF07468846286802F01CFFCDE90C012C
:1019200006FB06F002F003FD00223E4BCDE9080164
:1019300002F028FDCDE90A01DDE90C2302F042FBAB
:101940003A464346CDE90E0102F094FACDE9100182
:1019500002F05EFA8346606802F0E9FCCDE9060118
:10196000606802F0E4FC07462F4A304B02F00AFDA3
:10197000CDE90201304602F0DAFC07462A4A2C4B38
:1019800002F000FDCDE90001DDE9022302F072FA68
:10199000CDE90401DDE9062302F0F2FDCDE90A01FB
:1019A000A86802F0D7FECDE90801DDE90A2302F0BC
:1019B000E9FCCDE90E01304602F004FF80465946AD
:1019C00002F04CFF074602F0C5FECDE90C01DDE94F
:1019D0000E2302F04FFACDE9100102F04BFC8246D3
:1019E0006660504613B0BDE8F08F0346934201DBBA
:1019F000104670478B4201DC0846FAE71846F8E7C4
:101A00000146002901DA484270470846FCE70021F8
:101A1000016041608160C160704700007B14AE4787
:101A2000E17A843F0000F03F9A9999999999C93FCA
:101A30009999E93F10B586B004460121082000F0CD
:101A400037FE0121880400F040FE4FF48060ADF8BD
:101A5000140003208DF8160018208DF8170005A932
:101A60004D4800F069FB4FF40060ADF8140004200D
:101A70008DF8170005A9484800F05EFB27208DF877
:101A8000000003208DF801008DF8020001208DF880
:101A90000300684600F087FA01940020ADF80800C2
:101AA000ADF80A00ADF80C00ADF810000C20ADF850
:101AB0000E0001A9394801F0B0FD012240F2255184
:101AC000364801F042FE0121344801F032FE06B0F2
:101AD00010BD70B50446002510E0605D68B1615D21
:101AE0002E4801F093FE00BF80212C4801F0FCFE3F
:101AF0000028F9D0681CC5B200E070BDEDE770B5F4
:101B0000044600250FE05CB12146244801F07EFE2A
:101B100000BF8021214801F0E7FE0028F9D000E055
:101B200070BD681CC5B2032DEDDB00BFF8E710B532
:101B3000C82000F07AF9FF20FFF7E1FFC82000F08D
:101B400074F910BD10B540F22551144801F0E2FEC1
:101B5000D8B140F22551114801F006FF0F4801F0BD
:101B600059FEC4B2012C03D101200D4908700CE0CC
:101B7000022C03D101200A49487006E0032C04D14D
:101B80000120074988700749087010BD00210170C5
:101B90004170817070470000000C01400048004017
:101BA000990000209C00002000B587B00121102082
:101BB00000F07EFD0121C80400F087FD4FF4806035
:101BC000ADF8180018208DF81B0003208DF81A00BE
:101BD00006A96C4800F0B0FA4FF40060ADF81800A8
:101BE00004208DF81B0006A9664800F0A5FA4FF402
:101BF000165002900020ADF80C00ADF80E00ADF8C4
:101C00001000ADF814000C20ADF8120002A95E48D7
:101C100001F003FD34208DF8040000208DF805004C
:101C20008DF8060001208DF8070001A800F0BBF92F
:101C3000012240F22551544801F087FD012152480C
:101C400001F077FD07B000BD10B58EB040F2255110
:101C50004D4801F05FFE012810D140F225514A485D
:101C600001F082FE484801F0D5FDC4B24748017832
:101C70000078401C454A1070454844544348007859
:101C8000082828D142480078662813D1404A41A14B
:101C900001A801F01FFF01A8FFF71BFFFF20FFF7BE
:101CA0002EFF00203949087001203F4908703F4944
:101CB000087010E0364A37A101A801F00BFF01A817
:101CC000FFF707FFFF20FFF71AFF00202F490870DA
:101CD0000120354908700EB010BD10B50446012C26
:101CE00004D0022C07D0032C0FD109E03121264863
:101CF00001F08CFD0AE03221234801F087FD05E068
:101D00003321214801F082FD00E000BF00BF10BD7B
:101D100000201F494978303901EBC10202EB011163
:101D200000EB81001A498978303901EB810100EB21
:101D300041001749C97830390844154909782B29D9
:101D400000D17047404200BFFBE7002010494979AD
:101D5000303901EBC10202EB011100EB81000C49AB
:101D60008979303901EB810100EB41000849C979DB
:101D700030390844064909792B2900D1704740427F
:101D800000BFFBE700100140004C0040A500002010
:101D90009D00002070616765302E74302E74787459
:101DA0003D22257322000000A6000020A70000208D
:101DB00010B56FF0040000F040F934480068344971
:101DC000B0FBF1F0334908700846007800EB4001A1
:101DD000C1EBC0104FF6FF7101EAC0002E49088028
:101DE00010BD01462B4A12784A434FF0E0235A6156
:101DF00000229A611A46126942F001021A6100BF7C
:101E00004FF0E022106900F001021AB100F48032B4
:101E1000002AF5D04FF0E022126922F001024FF0C3
:101E2000E0231A6100229A61704701461A4A12881B
:101E30004A434FF0E0235A6100229A611A46126920
:101E400042F001021A6100BF4FF0E022106900F079
:101E500001021AB100F48032002AF5D04FF0E022DE
:101E6000126922F001024FF0E0231A6100229A6108
:101E7000704710B5044603E04FF47A70FFF7D5FFC2
:101E8000201EA4F101018CB2F6D110BD000000208B
:101E900000127A00A8000020AA00002000BF7047AE
:101EA00000BF2C4A128802F04002002AF9D0C2B2C8
:101EB000284B1B1D1A80704710B586B004460121BF
:101EC00044F2090000F0F4FB4020ADF814000320B8
:101ED0008DF8160018208DF8170005A91E4800F08F
:101EE0002BF98020ADF8140004208DF8170005A907
:101EF000194800F021F90121042000F0EEF9252015
:101F00008DF8000003208DF801008DF802000120FB
:101F10008DF80300684600F046F801940020ADF803
:101F20000800ADF80A00ADF80C00ADF810000C2068
:101F3000ADF80E0001A9074801F06FFB012240F245
:101F40002551044801F001FC0121024801F0F1FB98
:101F500006B010BD00380140000C01400948804720
:101F600009480047FEE7FEE7FEE7FEE7FEE7FEE77B
:101F7000FEE7FEE7FEE7FEE704480549054A064B93
:101F800070470000B3070008310100083801002045
:101F9000380700203803002038030020314901436E
:101FA000314A1160704770B5002100230F22C478B8
:101FB00004B32D4C246804F4E064C4F5E064210A01
:101FC000C1F10403CA40447804FA03F18478144050
:101FD00021430901254C0678A155047804F01F051A
:101FE0000124AC4005786D11AD0005F1E025C5F880
:101FF000004109E0047804F01F050124AC401C4DA9
:102000000678761145F8264070BD1A4A0A40024308
:10201000154B1B1F1A60704739B1134A121D126805
:102020000243114B1B1D1A6006E00F4A121D126875
:1020300082430D4B1B1D1A607047042808D14FF0D6
:10204000E021096941F004014FF0E022116107E04D
:102050004FF0E021096921F004014FF0E022116105
:10206000704700000000FA050CED00E000E400E01D
:1020700080E100E080FFFF1F10B50446CC48844299
:1020800008D10121042000F02DFB0021042000F0E4
:1020900029FB46E0C748844208D10121082000F00E
:1020A00021FB0021082000F01DFB3AE0C2488442D9
:1020B00008D10121102000F015FB0021102000F0B4
:1020C00011FB2EE0BD48844208D10121202000F000
:1020D00009FB0021202000F005FB22E0B8488442E3
:1020E00008D10121402000F0FDFA0021402000F03D
:1020F000F9FA16E0B348844208D10121802000F0AB
:10210000F1FA0021802000F0EDFA0AE0AE488442A6
:1021100007D10121801500F0E5FA0021A01500F09B
:10212000E1FA10BD10B50121084600F0DBFA0021EC
:10213000012000F0D7FA10BD2DE9F041024600253C
:102140000026002000230024002791F803C00CF093
:102150000F0591F803C00CF0100CBCF1000F03D078
:1021600091F802C04CEA050591F800C0BCF1000FDF
:1021700031D0146800202BE04FF0010C0CFA00F372
:10218000B1F800C00CEA03069E4220D183004FF054
:102190000F0C0CFA03F7BC4305FA03FC4CEA0404E9
:1021A00091F803C0BCF1280F06D14FF0010C0CFAD6
:1021B00000FCC2F814C00AE091F803C0BCF1480F5B
:1021C00005D14FF0010C0CFA00FCC2F810C0401C05
:1021D0000828D1D31460B1F800C0BCF1FF0F34DD82
:1021E000546800202EE000F1080C4FF0010808FAB6
:1021F0000CF3B1F800C00CEA03069E4221D1830023
:102200004FF00F0C0CFA03F7BC4305FA03FC4CEA41
:10221000040491F803C0BCF1280F05D100F1080CAB
:1022200008FA0CF8C2F8148091F803C0BCF1480F0A
:1022300007D100F1080C4FF0010808FA0CF8C2F8B9
:102240001080401C0828CED35460BDE8F0814FF6C2
:10225000FF710180022181700421C1707047024624
:10226000002093680B400BB1012000E00020704774
:102270000146886880B2704702460020D3680B4050
:102280000BB1012000E0002070470146C86880B211
:10229000704701617047416170470AB1016100E018
:1022A00041617047C16070474FF480320A438261D8
:1022B0008161826182698269704702460020434BD6
:1022C00018684FF68073184040EA021008433F4BED
:1022D000186070473E49C8617047F0B50A46002350
:1022E00000240021002500F00046B6F1004F02D185
:1022F000364EF16901E0354E7168C0F3034583B293
:1023000000F44016B6F5401F08D121F070612F4E41
:10231000766826F070662D4F7E6012E000F480161D
:10232000B6F5801F06D1032606FA05F4A14341F055
:10233000706106E0460D360103FA06F6B14341F03E
:10234000706122B1460D360103FA06F6314300F002
:102350000046B6F1004F02D11C4EF16101E01B4E68
:102360007160F0BD30B500228B071C0F0F2303FAFC
:1023700004F2164B08338C1053F824309343134C5B
:1023800008348D1044F8253023468C1053F824303F
:102390008C07240F00FA04F423430C4C08348D10EE
:1023A00044F8253030BD0A49DC3108607047000030
:1023B00000080140000C01400010014000140140E1
:1023C00000180140001C01400020014000000140B5
:1023D00000002042DF48006840F00100DD4908604D
:1023E00008464068DC490840DA4948600846006809
:1023F000DA490840D74908600846006820F4802080
:1024000008600846406820F4FE0048604FF41F0052
:1024100088607047CF49096821F48031CD4A116046
:102420001146096821F480211160B0F5803F03D086
:10243000B0F5802F0ED106E0C649096841F480311D
:10244000C44A116007E0C349096841F4A021C14AA8
:10245000116000E000BF00BF704710B501460022C8
:10246000002300204A11012A02D1BA4C236806E059
:10247000022A02D1B74C236A01E0B64C636A01F02C
:102480001F02012494401C400CB1012000E00020F8
:1024900010BD38B5002000900024002500BF312079
:1024A000FFF7DBFF05460098401C00900098B0F550
:1024B000A06F01D0002DF2D03120FFF7CEFF08B180
:1024C000012400E00024204638BD01460020A14A36
:1024D000106820F0F80040EAC10010607047A04981
:1024E00008607047024600209A4B586820F47C1020
:1024F00042EA01031843974B5860704798490866B1
:10250000704701460020934A506820F003000843BA
:10251000506070478F48406800F00C0070470146DB
:1025200000208C4A506820F0F0000843506070474B
:1025300001460020874A506820F4E060084350605C
:10254000704701460020834A506820F4605040EAFA
:10255000C1005060704729B17E4A527A02437D4BD8
:102560005A7204E07B4A527A82437A4B5A7270471D
:102570007B49D8310860704701460020754A506891
:1025800020F440400843506070470021714A2032D7
:102590001170704A82F82010012802D004280AD154
:1025A00004E001216B4A2032117005E00521694ADF
:1025B0002032117000E000BF00BF70476949086019
:1025C00070476449096A0143624A1162704765496C
:1025D00044390860704730B50021002200240023F0
:1025E0005C4D6D6805F00C0121B1042905D0082966
:1025F00023D105E05C4D056022E05B4D05601FE0E6
:10260000544D6D6805F47012524D6D6805F48034B8
:10261000022505EB92421CB9544D554305600BE071
:102620004C4D6D6805F400351DB1504D55430560A6
:1026300002E04D4D5543056002E04B4D056000BF83
:1026400000BF444D6D6805F0F0010909484D6B5C11
:102650000568DD4045603F4D6D6805F4E061090A9D
:10266000434D6B5C4568DD4085603A4D6D6805F40F
:102670006051C90A3E4D6B5C4568DD40C560354D13
:102680006D6805F44041890B3A4D6B5CC568B5FB3C
:10269000F3F5056130BD29B12E4A526902432D4B35
:1026A0005A6104E02B4A526982432A4B5A617047AF
:1026B00029B1284A92690243264B9A6104E0254ACF
:1026C00092698243234B9A61704729B1214AD269AA
:1026D0000243204BDA6104E01E4AD26982431D4B5B
:1026E000DA61704729B11B4AD2680243194BDA609C
:1026F00004E0184AD2688243164BDA60704729B169
:10270000144A12690243134B1A6104E0114A126918
:102710008243104B1A617047124940390860704774
:102720000F49C86470470B49C87170470948406A2F
:1027300040F0807007494862704701460020054A12
:1027400092680A400AB1012000E000207047014968
:1027500088727047001002400000FFF8FFFFF6FE8D
:10276000000042428004424200127A0000093D000B
:10277000B0000020C000002010B50446FE4884428E
:1027800008D10121C014FFF7ADFF0021E014FFF7CD
:10279000A9FFC4E0B4F1804F08D101210846FFF73A
:1027A000AEFF00210120FFF7AAFFB8E0F348844202
:1027B00008D101210220FFF7A2FF00210220FFF72C
:1027C0009EFFACE0EE48844208D101210420FFF7CF
:1027D00096FF00210420FFF792FFA0E0E948844221
:1027E00008D101210820FFF78AFF00210820FFF708
:1027F00086FF94E0E448844208D101211020FFF7CD
:102800007EFF00211020FFF77AFF88E0DF48844236
:1028100008D101212020FFF772FF00212020FFF7BF
:102820006EFF7CE0DA48844208D101214014FFF7B2
:1028300059FF00216014FFF755FF70E0D54884422E
:1028400009D10121C804FFF74DFF00214FF40020FA
:10285000FFF748FF63E0D048844209D10121080511
:10286000FFF740FF00214FF48010FFF73BFF56E0D9
:10287000CA48844209D101214805FFF733FF0021EE
:102880004FF40010FFF72EFF49E0C548844208D1FD
:1028900001214020FFF733FF00214020FFF72FFFE9
:1028A0003DE0C048844208D101218020FFF727FF86
:1028B00000218020FFF723FF31E0BB48844208D18C
:1028C00001218015FFF71BFF0021A015FFF717FF5F
:1028D00025E0B648844209D101210804FFF702FF30
:1028E00000214FF48030FFF7FDFE18E0B04884422D
:1028F00009D101214804FFF7F5FE00214FF4003013
:10290000FFF7F0FE0BE0AB48844208D101218804B8
:10291000FFF7E8FE00214FF48020FFF7E3FE10BD33
:1029200000220288944B98420ED0994B98420BD0CB
:10293000B0F1804F08D0914B984205D0904B98420F
:1029400002D0904B984204D14FF68F731A404B88B7
:102950001A438D4B984207D08C4B984204D04FF6C7
:10296000FF431A40CB881A4302808B8883850B88EB
:102970000385814B98420BD0854B984208D08B4BF6
:10298000984205D08A4B984202D08A4B984201D196
:102990000B7A038601238382704770B500240022DE
:1029A0000023058C4FF6FE7635400584028C838823
:1029B000048B4FF68F752C40B51E2C400D882C4390
:1029C000751E2A400D892A434D882A436A4DA84224
:1029D0000BD06F4DA84208D0744DA84205D0744D5D
:1029E000A84202D0734DA84213D14FF6F7752A4082
:1029F0004D892A434FF6FB752A408D882A434FF6AE
:102A0000FF652B404FF6FF552B408D892B43CD8919
:102A10002B4383800483CD888586028470BD70B586
:102A2000002400220023058C4FF6EF763540058404
:102A3000028C8388048B48F6FF752C404FF6FF45C7
:102A40002C400D884FF6FF7606EA05252C434FF6FD
:102A5000DF752A400D8906EA05152A434D8806EAE6
:102A600005152A43444DA84202D0494DA8421DD124
:102A70004FF67F752A404D894FF6FF7606EA051519
:102A80002A434FF6BF752A408D8806EA05152A436A
:102A90004FF6FF352B404FF2FF752B408D8906EA2C
:102AA00085052B43CD8906EA85052B438380048366
:102AB000CD880587028470BD70B5002400220023F4
:102AC000058C4FF6FF6635400584028C8388848B25
:102AD0004FF68F752C404FF6FC752C400D882C431B
:102AE0004FF6FF552A400D894FF6FF7606EA052579
:102AF0002A434D8806EA05252A431F4DA84202D0E5
:102B0000234DA8421DD14FF2FF752A404D894FF643
:102B1000FF7606EA05252A434FF6FF352A408D88C1
:102B200006EA05252A434EF6FF752B404DF6FF7544
:102B30002B408D8906EA05152B43CD8906EA05153C
:102B40002B4383808483CD888587028470BD70B5D4
:102B5000002200230024058C4EF6FF7635400584C4
:102B6000038C8488828B48F6FF752A404FF6FF4518
:102B70002A400D8820E00000002C014000040040A5
:102B800000080040000C004000100040001400400D
:102B900000340140004C014000500140005401400D
:102BA00000180040001C0040002000400040014090
:102BB00000440140004801404FF6FF7606EA052533
:102BC0002A434DF6FF752B400D8906EA05352B4348
:102BD0004D8806EA05352B43FA4DA84202D0FA4D3E
:102BE000A84208D14BF6FF752C408D894FF6FF7631
:102BF00006EA85152C4384808283CD88A0F8405056
:102C0000038470BD828B4FF2FF331A408283828B24
:102C10004FF6FF7303EA01231A4382837047F0B52E
:102C20000C461546002200210026078C4EF6FF7C3C
:102C300007EA0C070784828B018C4FF6FF7707EABF
:102C4000043640F6FF473A404FF6FF7707EA05277C
:102C50003A434FF6FF7707EA03373A43D94FB84272
:102C60000ED0D94FB8420BD0B0F1804F08D0D74F1B
:102C7000B84205D0D64FB84202D0D64FB84206D19E
:102C80004DF6FF77394046F48057394305E047F663
:102C9000FF57394044F48057394382830184F0BDA3
:102CA000828B4FF6F3731A408283828B0A438283AE
:102CB0007047F0B50C461546002200210026078C0F
:102CC0004FF6FF6C07EA0C070784828B018C4FF6E6
:102CD000FF7707EA04264FF60C773A404FF6FF7766
:102CE00007EA03172F433A43B64FB8420ED0B64F08
:102CF000B8420BD0B0F1804F08D0B44FB84205D0E5
:102D0000B34FB84202D0B34FB84206D14FF6FF5787
:102D1000394046F48077394305E04FF2FF57394098
:102D200044F48077394382830184F0BD028B4FF2F3
:102D3000FF331A400283028B4FF6FF7303EA01232D
:102D40001A4302837047F0B50C4615460022002155
:102D50000026078C4FF6EF7C07EA0C070784028BEE
:102D6000018C4FF6FF7707EA041640F6FF473A401A
:102D70004FF6FF7707EA03373A434FF6FF7707EA44
:102D800005273A438F4FB8420ED08F4FB8420BD031
:102D9000B0F1804F08D08D4FB84205D08C4FB8426B
:102DA00002D08C4FB84206D14FF6DF77394046F05B
:102DB0001007394305E04FF65F77394044F01007BC
:102DC000394302830184F0BD028B4FF6F3731A403E
:102DD0000283028B0A4302837047F0B50C46154606
:102DE00000220021068C4FF6FE773E400684028BBF
:102DF000018C4FF60C7632407E1C06EA03162E43F9
:102E00003243704EB0420ED06F4EB0420BD0B0F194
:102E1000804F08D06D4EB04205D06D4EB04202D00A
:102E20006C4EB04206D14FF6FD76314044F00106BB
:102E3000314305E04FF6F576314044F00106314369
:102E400002830184F0BD70B505460C465D4885429D
:102E50000ED05D4885420BD0B5F1804F08D05B485D
:102E6000854205D05A48854202D05A48854200D151
:102E700000E000BF208850B92389A28861882846D5
:102E8000FFF7ABFFE1882846FFF79EFF25E020888B
:102E900004280AD12389A28861882846FFF753FFB6
:102EA000E1882846FFF742FF17E0208808280AD16A
:102EB0002389A28861882846FFF7FBFEE18828461F
:102EC000FFF7EEFE09E02389A28861882846FFF714
:102ED000A6FEE1882846FFF795FE70BD2DE9F0417A
:102EE00005460C4600260127608808B9022600E046
:102EF0000026A088012801D1022700E001272088B0
:102F0000A0B92389A28861882846FFF766FFE18877
:102F10002846FFF759FF23893A4631462846FFF7EE
:102F200012FFE1882846FFF701FF13E02389A288FA
:102F300061882846FFF707FFE1882846FFF7F6FE7D
:102F400023893A4631462846FFF747FFE18828465D
:102F5000FFF73AFFBDE8F0810A884B881A438B8857
:102F60001A43CB881A430B891A434B891A438B891E
:102F70001A43A0F8442070474FF6FF71818000216A
:102F80000180C18041800172704700210180418031
:102F90008180C180018141818181C181704700218F
:102FA00001804180012181800021C1800181704721
:102FB0000021018041808180C18001814181818126
:102FC00070470000002C0140003401400004004024
:102FD00000080040000C004021B1028842F00102CC
:102FE000028004E002884FF6FE731A4002807047A8
:102FF00031B1B0F8442042F40042A0F8442005E08A
:10300000B0F84420C2F30E02A0F8442070471AB171
:1030100083890B43838102E083898B4383817047DB
:103020008182704741EA0203A0F8483070471AB124
:1030300083890B43838102E083898B4383817047BB
:1030400001894FF6F8721140018170470A4600214C
:1030500001894FF68F73194011430181704730B5D4
:1030600004460D4629462046FFF7F0FF208940F030
:103070000700208130BD2DE9F04104460D4616467B
:103080001F46602D06D13B46012231462046FFF700
:103090005AFE05E03B46012231462046FFF79DFEE1
:1030A00029462046FFF7D2FF208940F00700208103
:1030B000BDE8F08130B50C4600210189C9B24FF658
:1030C000FF7505EA0325154325432943018130BDDA
:1030D0002DE9F04105460E46174698460024434622
:1030E0003A4631462846FFF7E5FF2C894FF6F8703F
:1030F000044044F007044FF68F70044044F070041D
:103100002C81BDE8F081F0B504460D4616461F46F9
:103110003B46324629462046FFF7CCFF208940F443
:1031200080402081F0BD0185828270470A460021DF
:1031300001884FF68F731940114301807047F0B535
:103140000C4615461E460021002200230189028BF1
:10315000038C4FF6F877394021434FF6FC473A404D
:1031600040F201173A434FF6DD773B404FF6FF77C9
:1031700007EA06172F433B43018102830384F0BD16
:103180000A460021018B4FF68F73194011430183CA
:1031900070470A460021018B48F6FF7319404FF62D
:1031A000FF7303EA02231943018370470A46002193
:1031B000818B4FF68F7319401143818370470A4604
:1031C0000021818B48F6FF7319404FF6FF7303EA25
:1031D000022319438183704721B1028842F08002A3
:1031E000028004E002884FF67F731A400280704725
:1031F00021B1828842F00402828004E082884FF686
:10320000FB731A408280704721B1828842F0080225
:10321000828004E082884FF6F7731A4082807047FC
:1032200021B1828842F00102828004E082884FF658
:10323000FE731A40828070470A460021018B4FF6C8
:10324000F77319401143018370470A460021018B2F
:103250004FF2FF7319404FF6FF7303EA022319433D
:10326000018370470A460021818B4FF6F77319409E
:103270001143818370470A460021818B4FF2FF730F
:1032800019404FF6FF7303EA022319438183704705
:103290000A460021018B4FF6FB731940114301834D
:1032A00070470A460021018B4FF6FF3319404FF655
:1032B000FF7303EA02231943018370470A46002182
:1032C000818B4FF6FB7319401143818370470A4687
:1032D0000021818B4FF6FF3319404FF6FF7303EA4D
:1032E00002231943818370470A460021018B4FF660
:1032F0007F7319401143018370470A460021018BF7
:10330000C1F30E014FF6FF7303EA02231943018351
:1033100070470A460021818B4FF67F731940114395
:10332000818370470A460021818BC1F30E014FF65D
:10333000FF7303EA02231943818370470A46002181
:10334000018C4FF6FD7319401143018470470A4602
:103350000021018C4FF6F773194011430184704727
:103360000A460021018C4FF6DF7319404FF6FF73B8
:1033700003EA02131943018470470A460021018CB5
:103380004FF67F7319404FF6FF7303EA0213194398
:10339000018470470A460021018C4FF6FF53194003
:1033A0004FF6FF7303EA02231943018470470A466C
:1033B0000021018C4FF2FF7319404FF6FF7303EAAF
:1033C00002231943018470470A460021018C4DF6FF
:1033D000FF7319404FF6FF7303EA02331943018468
:1033E000704730B5002301248C40A3B2048C9C4369
:1033F0000484048C02FA01F5ADB22C43048430BD80
:1034000030B5002304248C40A3B2048C9C43048474
:10341000048C02FA01F5ADB22C43048430BD70B5C2
:103420000346002000241846183001258D40ACB218
:103430001D8CA5431D8409B1082909D100EB610049
:10344000056825F0700505600568154305600EE008
:103450000D1FC5F34E052844056825F4E0450560B9
:1034600005684FF6FF7606EA02263543056070BD13
:1034700021B1028842F00202028004E002884FF685
:10348000FD731A400280704721B1028842F00402A5
:10349000028004E002884FF6FB731A4002807047F6
:1034A00021B1828842F08002828004E082884FF657
:1034B0007F731A408280704702884FF6F7731A4074
:1034C000028002880A430280704782884FF68F7319
:1034D0001A40828082880A438280704702894FF6B0
:1034E000F8731A40028102890A43028170470289F7
:1034F0004FF67F731A40028102890A4302817047A6
:103500008184704781857047818670470187704745
:1035100081877047A0F84010704702884FF6FF433C
:103520001A40028002880A43028070470146888E52
:1035300070470146088F70470146888F70470146E3
:10354000B1F8400070470146888C70470146088DED
:10355000704702460020138A0B400BB1012000E0A7
:1035600000207047CA430282704730B502460020EF
:1035700000230024158A05EA0103958905EA010460
:1035800013B10CB1012000E0002030BDCA4302821B
:103590007047000010B50446FB48844209D1012160
:1035A0008803FFF79FF800214FF48040FFF79AF857
:1035B00032E0F648844209D101214804FFF79FF820
:1035C00000214FF40030FFF79AF825E0F0488442DC
:1035D00009D101218804FFF792F800214FF48020DF
:1035E000FFF78DF818E0EB48844209D10121C804A7
:1035F000FFF785F800214FF40020FFF780F80BE07B
:10360000E548844208D101210805FFF778F8002138
:103610004FF48010FFF773F810BD2DE9F04786B026
:1036200005460E460024A24600BFA1460027B089E9
:1036300000B100BF2F462C8A4CF6FF700440F08882
:1036400004432C82AC894EF6F3100440B0883189D3
:103650000843718908430443AC81AC8A4FF6FF40AC
:103660000440B0890443AC8201A8FEF7B4FFC64809
:10367000874202D1DDF810A001E0DDF80CA0A88996
:1036800000F4004040B10AEBCA0000EB0A103168B8
:103690004900B0FBF1F807E00AEBCA0000EB0A10A2
:1036A00031688900B0FBF1F86420B8FBF0F0040148
:1036B0002009642101FB1089A88900F4004040B171
:1036C000322000EBC900B0FBF1F000F0070004432A
:1036D00008E0322000EB09106421B0FBF1F000F0AB
:1036E0000F0004432C8106B0BDE8F0874FF416515B
:1036F000016000218180C18001810C214181002174
:103700008181704710B502460020108A4FF2FF03F6
:1037100018400B884C8823438C882343CC88234350
:103720001843108210BD0021018041808180C1803A
:10373000704721B1828942F40052828104E082897B
:103740004DF6FF731A4082817047F0B5034600249E
:1037500000260025002040F66A17B94200D100BFBC
:103760001846C1F3421401F01F06012707FA06F5B7
:10377000012C01D10C3004E0022C01D1103000E00A
:1037800014301AB107682F43076002E00768AF439F
:103790000760F0BD1AB1838A0B43838202E0838AFB
:1037A0008B4383827047028A4FF6F0731A4002827D
:1037B000028A0A430282704782894FF2FF731A40DD
:1037C000828182890A438281704721B1828942F0D5
:1037D0000202828104E082894FF6FD731A408281E1
:1037E0007047028A4FF6DF731A400282028A0A4348
:1037F0000282704721B1028A42F48042028204E0D0
:10380000028A4BF6FF731A4002827047C1F3080226
:103810008280704701468888C0F30800704781891C
:1038200041F0010181817047028BD2B20283028B89
:1038300042EA012202837047028B02F47F42028334
:10384000028B0A430283704721B1828A42F0200230
:10385000828204E0828A4FF6DF731A4082827047C8
:1038600021B1828A42F01002828204E0828A4FF6FD
:10387000EF731A408282704721B1828A42F00802B7
:10388000828204E0828A4FF6F7731A408282704780
:1038900021B1828942F40042828103E08289C2F32D
:1038A0000E028281704721B1828A42F400628282D4
:1038B00004E0828A4FF2FF731A4082827047828A44
:1038C0004FF6FB731A408282828A0A4382827047D3
:1038D00021B1828A42F00202828204E0828A4FF69B
:1038E000FD731A408282704702460020B1F5007FC6
:1038F00000D100BF13880B400BB1012000E0002075
:10390000704701F40072B2F5007F00D100BFCA43D6
:103910000280704770B50246002400230025002075
:1039200040F66A16B14200D100BFC1F3421501F062
:103930001F03012606FA03F3012D02D196893340B5
:1039400006E0022D02D1168A334001E0968A334008
:103950000C12012606FA04F41688344013B10CB197
:10396000012000E0002070BD10B50022002340F6C9
:103970006A14A14200D100BF0A1201249440A3B2EC
:10398000DC43048010BD00000038014000440040CA
:1039900000480040004C00400050004000204449D6
:1039A0000860091D0860091D0860091D086041487C
:1039B0003F4914310860704700213D498279002A4F
:1039C0003AD00A46126803689A430B461A600A1DE9
:1039D000126803689A430B1D1A60027911440A6841
:1039E00003681A430A60324A0832126803689A432D
:1039F0002F4B08331A601A1D126803689A432C4B28
:103A00000C331A604279102A0ED11A1F126803680B
:103A10001A43274B08331A601A1D126803681A43A9
:103A2000234B0C331A600DE02149427911440A6896
:103A300003681A430A6005E0027911440A680368C2
:103A40009A430A6070470021016001710C214171A5
:103A50000021817170471649103109680143144AE9
:103A600010321160704701460020114A143212686A
:103A70000A400AB1012000E0002070470C491431CF
:103A800008607047014600200022094B1B6803EACA
:103A90000102074B14331B680B4013B10AB101201C
:103AA00000E00020704702491431086070470000B0
:103AB00000040140FFFF0F00704700000FB40449ED
:103AC00010B503AA029800F05BF910BC5DF814FB76
:103AD000AC0000200FB41CB5074B06AA7B44694616
:103AE0000090059800F01DF90020694600F02CF9BF
:103AF0001CBC5DF814FB00006902000070B50C46A8
:103B00000546012A05D02878800600D5EA690023F9
:103B100002E0012305E05B1C934202D2E05C002836
:103B2000F9D1A869E618C01AA861286A1844286261
:103B30002846AFF3008004E0D5E9012114F8010B19
:103B40009047B442F8D32846AFF3008070BD000020
:103B50002DE9F0410646002410687529314616A566
:103B600010D0AFF30080002802DA404213A507E02E
:103B700031688A0701D512A502E0490704D511A5CD
:103B8000012401E0AFF3008000210A2206F124079E
:103B900009E0B0FBF2FCB0FBF2F302FB1C0030309A
:103BA00078541846491C0028F3D123462A4630464B
:103BB000BDE8F04100F056B8000000002D00000004
:103BC0002B000000200000002DE9F0410F460446C4
:103BD0000020DFF88480F84420622046E1688847AE
:103BE00090B3252806D0D4E901219047206A401CD3
:103BF0002062F2E700252046E16888472028064633
:103C000008DB312E06D208EB060010F8200C08B1B4
:103C10000543F0E7A80701D525F00405A6B1A6F1F4
:103C20004100192802D8203645F400653A4631464D
:103C300020462560FCF7B6FA48B1012805D0FF1DE3
:103C400027F007070837C8E703E03F1DC5E7304600
:103C5000C9E7206ABDE8F0817C0E0000704770471C
:103C6000704770472DE9F0470D4699469246044645
:103C700000F124080168880604D5E06921F01001EC
:103C8000216000E00120A84201DD471B00E0002781
:103C9000A1697A1902EB0900081AA0612078C00610
:103CA00002D42046AFF30080002608E0D4E90121C9
:103CB0001AF806009047206A401C761C20624E4588
:103CC000F4DB2078C0060AD52046AFF3008006E07A
:103CD000D4E9012130209047206A401C2062381E20
:103CE000A7F10107F4DC07E0D4E9012118F8050089
:103CF0009047206A401C2062281EA5F10105F3DCD4
:103D00002046AFF300802078000602D50220BDE8EF
:103D1000F0870120FBE7000001694A1C0261087876
:103D2000704700B58FB0CDE90131002105910549FB
:103D30007944CDE9031011466846FFF745FF0FB0FF
:103D400000BD0000E5FFFFFF0A6802F8010B0A60F2
:103D5000704710B5436913B1AFF3008001E0FFF77E
:103D6000CDFE012010BD127800F124010A7000225E
:103D70004A700122EDE711684FF0FF32E9E70000D9
:103D8000074B70B50D467B44FFF7CBFF0446284632
:103D900000F008F810B14FF0FF3070BD204670BD44
:103DA00017E1FFFF007B00F080007047754600F0D0
:103DB0002BF8AE4605006946534620F007008546BD
:103DC00018B020B5FEF7D8F8BDE820404FF0000647
:103DD0004FF000074FF000084FF0000B21F00701F3
:103DE000AC46ACE8C009ACE8C009ACE8C009ACE836
:103DF000C0098D46704710B50446AFF300802046D9
:103E0000BDE81040FCF7E3B900487047D40000203B
:103E100021F00042A2F16052B2F5801F01F0004390
:103E200028BFD2F17F6C0BD95FEA001C43EAC202C3
:103E300042EB507018BF704728BF20F00100704758
:103E4000B2F5801FBCBF184670474FEA410C1CF505
:103E5000001F02D2084600F0C8BD70B500F03CFB60
:103E600000000089FFF7F6BF4FF00040A0F580008A
:103E70007047000010B591EA030F48BF83F000437C
:103E800000F18683841A71EB030C05D2121943EBFF
:103E90000C03001B61EB0C01DFF824E14FEA115425
:103EA000A4EB135C1EEA430F18BF9EEA445F73D075
:103EB00023EA0E03DCF1200E21EA045143F48013BF
:103EC00032D322FA0CFE10EB0E0023FA0CFE41EB6B
:103ED0000E01CCF1200E03FA0EFE10EB0E0051F194
:103EE0000001B1F5801FCCF1200E32D201EB04515C
:103EF00012FA0EF2BDE8104058BF7047401C38BFA0
:103F00005FEA420218BF7047002814BF20F001008A
:103F100041F100014FEA410313F5001F38BF70471C
:103F2000A1F1C04100F026BB012A43EB0302ACF132
:103F3000200CDCF11F0E32BF4FF0000E23FA0CF301
:103F400010EB030041EB0451B4EB115FD0D0A1EBB7
:103F5000045101F5801149085FEA300001EB04517A
:103F60000ED350F1000038BF12FA0EFE08D1BDE8A2
:103F70001040C9E7401C38BF5FEA4202CAD1C3E71C
:103F8000BDE810404FEA410313F5001F38BF7047EA
:103F9000A1F1C04100F0EEBA9EEA445F08D011EAF8
:103FA0005E0FBDE8104004BF01F0004100207047E3
:103FB000BDE8104070B500F08FFA00BF64FBBE3E54
:103FC0000000E0FF2DE9C04130B4DFF8A0C23CEAB8
:103FD000111418BF3CEA131400F0EC8081EA0305C9
:103FE0001CEA111444EAD57418BF1CEA131500F03A
:103FF000C780A4EB05044FF0004545EAC12145EA1E
:10400000C32341EA505143EA525304F17F74994269
:1040100004F500344FEAC0204FEAC22208BF9042A4
:1040200000F09C804FEA13650FF24016765D4FEA70
:10403000134506FB05F7C7F1807706FB07F74FEA44
:10404000D737A7FB03687642C8F58038A7FB06CEB2
:1040500038BFA8F1010807FB08E64FF0000EA6FBE9
:10406000028CE6FB03CEDCF1000CCEF1004E38BF33
:10407000AEF1010EA6FB0C584FF000074FF0000503
:10408000E6FB0E87A1FB08C6A0FB07CE16EB0E06CB
:1040900045F10005E1FB076515F1E04E7EBFA4F593
:1040A00080345FEA46066D4116F1800745F1000550
:1040B0004FEA17274FEA066647EA0567A6F1DE468C
:1040C000B6F1805F4FEA15251FD9384624F0010C60
:1040D00005EBC471BCF1FE6F01EB0C1102D8F0BC12
:1040E000BDE8008124425CBF01F5801E9EEAC47FCA
:1040F00002D4F0BCBDE80081244238D4F0BCA1F168
:10410000C041BDE8004100F035BA4FEAD22242EA90
:1041100043524FEAD323A7FB02864FEAD02040EA5E
:10412000415007FB03661EEA0E0F4FEAD12105FB43
:10413000026658BFA6EB0056B6EB00564FEA520E89
:104140004EEAC37E18EB0E0E56EB530EBDD518EBA0
:1041500002085E417F1C55F10005B6E74FF480155B
:104160004FF000074FF000064FF00008ADE7F0BC3D
:104170004FF0000001F1C04101F00041BDE80081B5
:1041800011EA0C1F0CEA131500D00CE013EA0C1F07
:1041900000F025804FF00000F0BC81EA030101F03F
:1041A0000041BDE80081F0BCBDE8004181EA0301A7
:1041B00000F0E0B9F0BCBDE8004170B500F08CF94A
:1041C000097EFC3E00F007B881EA03014FF00000D1
:1041D00001F00041704781EA030100F0CBB9F0BC67
:1041E000BDE800414FF0000021497047FFFDFBF999
:1041F000F7F5F4F2F0EEEDEBE9E8E6E4E3E1E0DE1A
:10420000DDDBDAD8D7D5D4D3D1D0CFCDCCCBCAC88B
:10421000C7C6C5C4C2C1C0BFBEBDBCBBBAB9B8B7B2
:10422000B6B5B4B3B2B1B0AFAEADACABAAA9A8A8A5
:10423000A7A6A5A4A3A3A2A1A09F9F9E9D9C9C9B73
:104240009A9999989797969595949393929191901E
:104250008F8F8E8E8D8C8C8B8B8A898988888787AF
:104260008685858484838382828181800000FF0724
:104270000000F87F4FEA41034FEA5353A3F58063F0
:10428000D3F11E03C8BFD3F1210C0CDD4FF0004267
:1042900042EAC12242EA505232FA03FC8CEAE17C43
:1042A000ACEBE1707047102BC4BF0020704703F5E2
:1042B000787CBCF1FF3F04D06FF0004282EA21001D
:1042C000704770B500F008F94992248000207047CB
:1042D000F2E700004FEA1153A3F58063D3F11E0308
:1042E000A8BFD3F1200C08DB4FF0004242EAC12204
:1042F00052EA505232FA03F0704709420BD4102BA5
:10430000C4BF0020704703F5787CBCF1FF3F05D0A7
:104310004FF0FF3070474FF00000704770B500F06D
:10432000DBF800BF4992248000207047F0E710F0CE
:10433000004248BF4042B0FA80F310FA03F10AD0BD
:10434000C3F11D0303F580634FEA415002EB0352B2
:1043500002EBD12170474FF000007047B0FA80F3B4
:1043600010FA03F10AD0C3F11D0303F580634FEA8D
:1043700041504FEA035202EBD12170474FF0000049
:1043800070470000DFF848C170B51CEA111E1EBF5F
:104390001CEA13159EEA0C0F95EA0C0F00F06F80D3
:1043A00081EA030423EA4C134EEAD47E21EA4C113D
:1043B00041F4801143F48013AE44A1FB024CA0FBF6
:1043C0000365AEF17F7E361955EB0C05A1FB034C5E
:1043D0004CF10003A0FB021C16EB0C06654153F1E7
:1043E0000003094218BF46F0010613F4007F0BD109
:1043F0004FEA03314FEA0530340341EA155140EAF0
:1044000016506FF003020AE04FEAC3214FEAC520BD
:10441000F40241EA555140EA56506FF0020202EBB5
:104420002E4201EB025585EACE710AD05FEA440CB8
:1044300018BF24F0004450F1000041F1000120EACF
:10444000D47040F2FE7C624500D270BDA84214BF19
:104450004FF080444FF04044002E08BF0024BEF1CE
:10446000806FA8BFA1F1C041BDE8704080F282809A
:104470004FF0000001F1C04101F0004170479EEA99
:104480000C0F0CEA131518BF95EA0C0F06D04FF06D
:10449000000081EA030E0EF0004170BD00F01CF830
:1044A0008900013E00F007B800F009B84FEA430C5C
:1044B0005FEA5C5C08D081EA030100F05BB84FEA78
:1044C000410C5FEA5C5CF6D14FF000000149704797
:1044D0000000FF070000F87F0EF1020E2EF0030E21
:1044E0005EF8046B364205D4012A43EB030515F54B
:1044F000001F12D8012841EB010C1CF5001F0CD83D
:104500000ED14FEAD17C15F5001F0CEB4C0C0CF1D1
:10451000020C08BF4CEBD37C04E04FF0080C01E028
:104520004FEAD37C0CEB4C0526FA05F606F007069D
:10453000B6F1040C06D20EEB860CBDE870404CF0D0
:10454000010C6047DFE80CF0090B02024FF000415C
:104550004FF00000A1F5002170BD1946104601285A
:1045600051EB010418BFD4F5001484BF002001F002
:10457000004170BD0808A0F500114FEA31017047F5
:1045800010B591EA030F48BF83F000433FF57AACC2
:10459000841A71EB030C07D212198CF0004C43EB18
:1045A0000C03001B61EB0C01DFF8A4E14FEA11548E
:1045B000A4EB135C1EEA430F18BF9EEA445F00F0B1
:1045C000B08023EA6E03524221EA0451C3EB6E032A
:1045D00038BF5B1EDCF1200E25D322FA0CFE10EB57
:1045E0000E0043FA0CFE41EB0E01CCF1200E03FA53
:1045F0000EFE10EB0E0051F10001CCF1200E29D47B
:1046000012FA0EF201EB0451BDE8104058BF70479A
:10461000401C1CBFB2F1004F704700280CBF491C62
:1046200020F00100704712EB020E43EB030218BFAB
:104630004FF0010E4EEA4202ACF1200CDCF11E0EEE
:1046400054D943FA0CFE10EB0E0051F1FF31CCF1BE
:104650001E0ED5D50EF1010E12FA0EFE404141EBB1
:10466000010101EB445C5FEA5C5C10D910EBDE7089
:1046700001EB045138BFBEF1004FBDE8104018BF38
:10468000704700280CBF491C20F00100704730D251
:104690004FEAD42C11F5001124F400641BD0B1FAB8
:1046A00081F20B3AA41AA41ED2F12003914030FAF1
:1046B00003F31943904001EBCC71002C01EB045142
:1046C000BDE81040A8BF704701F1C0414FF00000A5
:1046D00001F000417047B0FA80F310FA03F100D105
:1046E00010BDE41A173C4805C90AE4E701EB045180
:1046F00010BD491001EB0451BDE810404FEA3000F5
:1047000002E04FF0000170474A0008BF0042F8D0B5
:10471000B2F5001F28BF704701F000414FF00000C4
:1047200070479EEA445F07D011EA5E0FBDE8104073
:1047300004BF002100207047BDE8104070B5FFF7AE
:10474000CBFE00BF40DFF63E83F0004110467047CD
:104750000000E0FF43004FEAD30C4FEA3C0C43401B
:104760001FBF40070CF1605113F0FE4F70471CF063
:10477000006F03D100200CF0004170470CF00043A3
:1047800043EA507010B540EACC0000F0E8F800BFF2
:10479000000000924FEA0001FFF7ECBE4FF000412D
:1047A0004FF00000A1F500217047401058BFC0F144
:1047B0004040491058BFC1F140418142EFF30080B1
:1047C0007047000010F0004148BF4042B0FA80F34B
:1047D00010FA03F2C3F19D030BD051EAC35101EB70
:1047E0001220530638BF704700F1010008BF20F0C7
:1047F0000100704750EA010C00F113801CF5000F16
:1048000058BFBCF5000F01D48842704707D710F598
:10481000000F58BF11F5000F15D488427047894228
:1048200070471CF5000F04D5BCF5000FF7D5814289
:1048300070474FF0807C1CEB400F38BF1CEB410FE2
:1048400001D28142704710B500F089F892244900E6
:104850004FF000504FF08051FFF7A7BF4FF47F0C8F
:104860001CEAD0121EBF1CEAD11392EA0C0F93EA85
:104870000C0F00F0478090EA010F48BF42F48072AD
:104880004FF0004C4CEA00204CEA012102EB0302FD
:10489000A0FB0113A2F50002002918BF43F0010399
:1048A0005B0028BF4FEA330342EB22425FEA132C3E
:1048B0004CEBC2502EBFBCEB436FB2F57C0F704780
:1048C0004FEA036CBCF1004F08BF20F00100B2F5C5
:1048D0007C0F38BF70470BD582F0FF0212F5803F86
:1048E000C8BF704700F1C040D8BF00F0004070471B
:1048F00000F5000C5FEA4C0C48BF7047B0F1C040B7
:1049000000F073B890EA010F0CEAD11348BF42F4EB
:104910008072624538BF634504D280EA010000F02E
:104920000040704710B500F01AF800BF8900013E42
:1049300000F007B800F009B85FEA410C5FEA1C6CB0
:1049400008D080EA010000F050B85FEA400C5FEA4E
:104950001C6CF6D14FF00040A0F5800070470EF1BE
:10496000020E2EF0030E5EF8044B244204D44FEAEC
:104970004102B2F17F4F11D84FEA4003B3F17F4FAC
:104980000CD80ED14FEAD07CB2F17F4F0CEB4C0C1F
:104990000CF1020C08BF4CEBD17C04E04FF0080C8A
:1049A00001E04FEAD17C0CEB4C0324FA03F404F051
:1049B0000704B4F1040C06D20EEB840CBDE81040E1
:1049C0004CF0010C6047DFE80CF0070802024FF0E2
:1049D0000040A0F5800010BD0846420018BFD2F18B
:1049E000807288BF00F0004010BDFF2141EAD05026
:1049F000C005704751EA000C00F113801CF5000F50
:104A000058BFBCF5000F01D48142704707D711F59C
:104A1000000F58BF10F5000F15D48142704789422E
:104A200070471CF5000F04D5BCF5000FF7D5884280
:104A300070474FF0807C1CEB410F38BF1CEB400FE0
:104A400001D28842704780EA010081EA000180EAD1
:104A50000100FFF7F8BE040000080000000000009D
:104A60000002000100001000884A00080000002039
:104A7000C40000006C0100084C4B0008C40000207A
:104A8000740600008801000800A24A04000000002B
:104A900000000000010203040607080900000000EE
:104AA0000000000000000000010000000000000005
:104AB00001000000000000000000000001000000F4
:104AC0000000000001000000000000400000004065
:104AD000000000400004004000080040000C0040BE
:104AE00000000000000000000000000000000000C6
:104AF000000000000000000000004842CDCCCC3D8A
:104B0000CDCC4C3D0000C842000000000000E04059
:104B1000CDCCCC3D000000000000C84200000000E9
:104B20000000000000000000000000000000000085
:104B3000000000000000000000000000010203046B
:0C4B40000102030406070809020406082D
:0400000508000131BD
:00000001FF
